{
  "address": "0x473CdeD7801329d955D7f720e8d017da116566cB",
  "abi": [
    {
      "inputs": [
        {
          "internalType": "address",
          "name": "priceFeedAddress",
          "type": "address"
        }
      ],
      "stateMutability": "nonpayable",
      "type": "constructor"
    },
    {
      "inputs": [],
      "name": "FundMe__NotEnoughEth",
      "type": "error"
    },
    {
      "inputs": [],
      "name": "FundMe__NotOwner",
      "type": "error"
    },
    {
      "stateMutability": "payable",
      "type": "fallback"
    },
    {
      "inputs": [],
      "name": "MINIMUM_USD",
      "outputs": [
        {
          "internalType": "uint256",
          "name": "",
          "type": "uint256"
        }
      ],
      "stateMutability": "view",
      "type": "function"
    },
    {
      "inputs": [],
      "name": "cheaperWithdraw",
      "outputs": [],
      "stateMutability": "payable",
      "type": "function"
    },
    {
      "inputs": [],
      "name": "fund",
      "outputs": [],
      "stateMutability": "payable",
      "type": "function"
    },
    {
      "inputs": [],
      "name": "fund_to_zero",
      "outputs": [],
      "stateMutability": "nonpayable",
      "type": "function"
    },
    {
      "inputs": [
        {
          "internalType": "address",
          "name": "funder",
          "type": "address"
        }
      ],
      "name": "getAddressToAmountFunded",
      "outputs": [
        {
          "internalType": "uint256",
          "name": "",
          "type": "uint256"
        }
      ],
      "stateMutability": "view",
      "type": "function"
    },
    {
      "inputs": [
        {
          "internalType": "uint256",
          "name": "index",
          "type": "uint256"
        }
      ],
      "name": "getFunder",
      "outputs": [
        {
          "internalType": "address",
          "name": "",
          "type": "address"
        }
      ],
      "stateMutability": "view",
      "type": "function"
    },
    {
      "inputs": [],
      "name": "getOwner",
      "outputs": [
        {
          "internalType": "address",
          "name": "",
          "type": "address"
        }
      ],
      "stateMutability": "view",
      "type": "function"
    },
    {
      "inputs": [],
      "name": "getPriceFeed",
      "outputs": [
        {
          "internalType": "contract AggregatorV3Interface",
          "name": "",
          "type": "address"
        }
      ],
      "stateMutability": "view",
      "type": "function"
    },
    {
      "inputs": [],
      "name": "withdraw",
      "outputs": [],
      "stateMutability": "nonpayable",
      "type": "function"
    },
    {
      "stateMutability": "payable",
      "type": "receive"
    }
  ],
  "transactionHash": "0x3bc742dadd8930d9f5dde3accad8dd5a042e1ea54d9c486fa22798b01c77b423",
  "args": [
    "0x447Fd5eC2D383091C22B8549cb231a3bAD6d3fAf"
  ],
  "numDeployments": 8,
  "solcInputHash": "e646ac2fd3944d562edc13a1b26c43e1",
  "bytecode": "0x60a06040523480156200001157600080fd5b50604051620012dc380380620012dc833981810160405281019062000037919062000120565b3373ffffffffffffffffffffffffffffffffffffffff1660808173ffffffffffffffffffffffffffffffffffffffff1660601b8152505080600260006101000a81548173ffffffffffffffffffffffffffffffffffffffff021916908373ffffffffffffffffffffffffffffffffffffffff1602179055505062000152565b600080fd5b600073ffffffffffffffffffffffffffffffffffffffff82169050919050565b6000620000e882620000bb565b9050919050565b620000fa81620000db565b81146200010657600080fd5b50565b6000815190506200011a81620000ef565b92915050565b600060208284031215620001395762000138620000b6565b5b6000620001498482850162000109565b91505092915050565b60805160601c61115662000186600039600081816103a1015281816105f001528181610640015261083601526111566000f3fe60806040526004361061008a5760003560e01c8063893d20e811610059578063893d20e8146101395780639e87a5cd14610164578063b60d42881461018f578063be2693f014610199578063d7b4750c146101a357610099565b80630343fb25146100a35780631266c183146100e05780633ccfd60b146100f75780636b69a5921461010e57610099565b36610099576100976101e0565b005b6100a16101e0565b005b3480156100af57600080fd5b506100ca60048036038101906100c59190610afa565b610311565b6040516100d79190610b40565b60405180910390f35b3480156100ec57600080fd5b506100f5610359565b005b34801561010357600080fd5b5061010c61039f565b005b34801561011a57600080fd5b506101236105df565b6040516101309190610b40565b60405180910390f35b34801561014557600080fd5b5061014e6105ec565b60405161015b9190610b6a565b60405180910390f35b34801561017057600080fd5b50610179610614565b6040516101869190610be4565b60405180910390f35b6101976101e0565b005b6101a161063e565b005b3480156101af57600080fd5b506101ca60048036038101906101c59190610c2b565b6108cc565b6040516101d79190610b6a565b60405180910390f35b6802b5e3af16b188000061021f600260009054906101000a900473ffffffffffffffffffffffffffffffffffffffff163461091490919063ffffffff16565b1015610257576040517f5ed3980900000000000000000000000000000000000000000000000000000000815260040160405180910390fd5b346000803373ffffffffffffffffffffffffffffffffffffffff1673ffffffffffffffffffffffffffffffffffffffff16815260200190815260200160002060008282546102a59190610c87565b925050819055506001339080600181540180825580915050600190039060005260206000200160009091909190916101000a81548173ffffffffffffffffffffffffffffffffffffffff021916908373ffffffffffffffffffffffffffffffffffffffff160217905550565b60008060008373ffffffffffffffffffffffffffffffffffffffff1673ffffffffffffffffffffffffffffffffffffffff168152602001908152602001600020549050919050565b60008060003373ffffffffffffffffffffffffffffffffffffffff1673ffffffffffffffffffffffffffffffffffffffff16815260200190815260200160002081905550565b7f000000000000000000000000000000000000000000000000000000000000000073ffffffffffffffffffffffffffffffffffffffff163373ffffffffffffffffffffffffffffffffffffffff1614610424576040517f579610db00000000000000000000000000000000000000000000000000000000815260040160405180910390fd5b60005b6001805490508110156104cf5760006001828154811061044a57610449610cdd565b5b9060005260206000200160009054906101000a900473ffffffffffffffffffffffffffffffffffffffff16905060008060008373ffffffffffffffffffffffffffffffffffffffff1673ffffffffffffffffffffffffffffffffffffffff168152602001908152602001600020819055505080806104c790610d0c565b915050610427565b50600067ffffffffffffffff8111156104eb576104ea610d55565b5b6040519080825280602002602001820160405280156105195781602001602082028036833780820191505090505b506001908051906020019061052f9291906109f0565b5060003373ffffffffffffffffffffffffffffffffffffffff164760405161055690610db5565b60006040518083038185875af1925050503d8060008114610593576040519150601f19603f3d011682016040523d82523d6000602084013e610598565b606091505b50509050806105dc576040517f08c379a00000000000000000000000000000000000000000000000000000000081526004016105d390610e27565b60405180910390fd5b50565b6802b5e3af16b188000081565b60007f0000000000000000000000000000000000000000000000000000000000000000905090565b6000600260009054906101000a900473ffffffffffffffffffffffffffffffffffffffff16905090565b7f000000000000000000000000000000000000000000000000000000000000000073ffffffffffffffffffffffffffffffffffffffff163373ffffffffffffffffffffffffffffffffffffffff16146106c3576040517f579610db00000000000000000000000000000000000000000000000000000000815260040160405180910390fd5b6000600180548060200260200160405190810160405280929190818152602001828054801561074757602002820191906000526020600020905b8160009054906101000a900473ffffffffffffffffffffffffffffffffffffffff1673ffffffffffffffffffffffffffffffffffffffff16815260200190600101908083116106fd575b5050505050905060005b81518110156107d157600082828151811061076f5761076e610cdd565b5b6020026020010151905060008060008373ffffffffffffffffffffffffffffffffffffffff1673ffffffffffffffffffffffffffffffffffffffff168152602001908152602001600020819055505080806107c990610d0c565b915050610751565b50600067ffffffffffffffff8111156107ed576107ec610d55565b5b60405190808252806020026020018201604052801561081b5781602001602082028036833780820191505090505b50600190805190602001906108319291906109f0565b5060007f000000000000000000000000000000000000000000000000000000000000000073ffffffffffffffffffffffffffffffffffffffff164760405161087890610db5565b60006040518083038185875af1925050503d80600081146108b5576040519150601f19603f3d011682016040523d82523d6000602084013e6108ba565b606091505b50509050806108c857600080fd5b5050565b6000600182815481106108e2576108e1610cdd565b5b9060005260206000200160009054906101000a900473ffffffffffffffffffffffffffffffffffffffff169050919050565b60008061092083610950565b90506000670de0b6b3a764000085836109399190610e47565b6109439190610ed0565b9050809250505092915050565b6000808273ffffffffffffffffffffffffffffffffffffffff1663feaf968c6040518163ffffffff1660e01b815260040160a06040518083038186803b15801561099957600080fd5b505afa1580156109ad573d6000803e3d6000fd5b505050506040513d601f19601f820116820180604052508101906109d19190610f8e565b5050509150506402540be400816109e89190611009565b915050919050565b828054828255906000526020600020908101928215610a69579160200282015b82811115610a685782518260006101000a81548173ffffffffffffffffffffffffffffffffffffffff021916908373ffffffffffffffffffffffffffffffffffffffff16021790555091602001919060010190610a10565b5b509050610a769190610a7a565b5090565b5b80821115610a93576000816000905550600101610a7b565b5090565b600080fd5b600073ffffffffffffffffffffffffffffffffffffffff82169050919050565b6000610ac782610a9c565b9050919050565b610ad781610abc565b8114610ae257600080fd5b50565b600081359050610af481610ace565b92915050565b600060208284031215610b1057610b0f610a97565b5b6000610b1e84828501610ae5565b91505092915050565b6000819050919050565b610b3a81610b27565b82525050565b6000602082019050610b556000830184610b31565b92915050565b610b6481610abc565b82525050565b6000602082019050610b7f6000830184610b5b565b92915050565b6000819050919050565b6000610baa610ba5610ba084610a9c565b610b85565b610a9c565b9050919050565b6000610bbc82610b8f565b9050919050565b6000610bce82610bb1565b9050919050565b610bde81610bc3565b82525050565b6000602082019050610bf96000830184610bd5565b92915050565b610c0881610b27565b8114610c1357600080fd5b50565b600081359050610c2581610bff565b92915050565b600060208284031215610c4157610c40610a97565b5b6000610c4f84828501610c16565b91505092915050565b7f4e487b7100000000000000000000000000000000000000000000000000000000600052601160045260246000fd5b6000610c9282610b27565b9150610c9d83610b27565b9250827fffffffffffffffffffffffffffffffffffffffffffffffffffffffffffffffff03821115610cd257610cd1610c58565b5b828201905092915050565b7f4e487b7100000000000000000000000000000000000000000000000000000000600052603260045260246000fd5b6000610d1782610b27565b91507fffffffffffffffffffffffffffffffffffffffffffffffffffffffffffffffff821415610d4a57610d49610c58565b5b600182019050919050565b7f4e487b7100000000000000000000000000000000000000000000000000000000600052604160045260246000fd5b600081905092915050565b50565b6000610d9f600083610d84565b9150610daa82610d8f565b600082019050919050565b6000610dc082610d92565b9150819050919050565b600082825260208201905092915050565b7f43616c6c206661696c6564000000000000000000000000000000000000000000600082015250565b6000610e11600b83610dca565b9150610e1c82610ddb565b602082019050919050565b60006020820190508181036000830152610e4081610e04565b9050919050565b6000610e5282610b27565b9150610e5d83610b27565b9250817fffffffffffffffffffffffffffffffffffffffffffffffffffffffffffffffff0483118215151615610e9657610e95610c58565b5b828202905092915050565b7f4e487b7100000000000000000000000000000000000000000000000000000000600052601260045260246000fd5b6000610edb82610b27565b9150610ee683610b27565b925082610ef657610ef5610ea1565b5b828204905092915050565b600069ffffffffffffffffffff82169050919050565b610f2081610f01565b8114610f2b57600080fd5b50565b600081519050610f3d81610f17565b92915050565b6000819050919050565b610f5681610f43565b8114610f6157600080fd5b50565b600081519050610f7381610f4d565b92915050565b600081519050610f8881610bff565b92915050565b600080600080600060a08688031215610faa57610fa9610a97565b5b6000610fb888828901610f2e565b9550506020610fc988828901610f64565b9450506040610fda88828901610f79565b9350506060610feb88828901610f79565b9250506080610ffc88828901610f2e565b9150509295509295909350565b600061101482610f43565b915061101f83610f43565b9250827f7fffffffffffffffffffffffffffffffffffffffffffffffffffffffffffffff048211600084136000841316161561105e5761105d610c58565b5b817f8000000000000000000000000000000000000000000000000000000000000000058312600084126000841316161561109b5761109a610c58565b5b827f800000000000000000000000000000000000000000000000000000000000000005821260008413600084121616156110d8576110d7610c58565b5b827f7fffffffffffffffffffffffffffffffffffffffffffffffffffffffffffffff058212600084126000841216161561111557611114610c58565b5b82820290509291505056fea26469706673582212207e897874356e4c40cf02930a3261142f59f4778705e47aaf8616d14de576a18964736f6c63430008080033",
  "devdoc": {
    "author": "freecodecamp and Jesus Inurria",
    "details": "this impliments price feeds as our library",
    "kind": "dev",
    "methods": {
      "withdraw()": {
        "details": "implements price feed as library "
      }
    },
    "title": "A contract for crownd funding",
    "version": 1
  },
  "userdoc": {
    "kind": "user",
    "methods": {
      "withdraw()": {
        "notice": "This function  funds this contract"
      }
    },
    "notice": "this contract is to demo a sample funding contract",
    "version": 1
  },
  "storageLayout": {
    "storage": [
      {
        "astId": 61,
        "contract": "contracts/FundMe.sol:FundMe",
        "label": "s_addressToAmountFunded",
        "offset": 0,
        "slot": "0",
        "type": "t_mapping(t_address,t_uint256)"
      },
      {
        "astId": 64,
        "contract": "contracts/FundMe.sol:FundMe",
        "label": "s_funders",
        "offset": 0,
        "slot": "1",
        "type": "t_array(t_address)dyn_storage"
      },
      {
        "astId": 76,
        "contract": "contracts/FundMe.sol:FundMe",
        "label": "s_priceFeed",
        "offset": 0,
        "slot": "2",
        "type": "t_contract(AggregatorV3Interface)45"
      }
    ],
    "types": {
      "t_address": {
        "encoding": "inplace",
        "label": "address",
        "numberOfBytes": "20"
      },
      "t_array(t_address)dyn_storage": {
        "base": "t_address",
        "encoding": "dynamic_array",
        "label": "address[]",
        "numberOfBytes": "32"
      },
      "t_contract(AggregatorV3Interface)45": {
        "encoding": "inplace",
        "label": "contract AggregatorV3Interface",
        "numberOfBytes": "20"
      },
      "t_mapping(t_address,t_uint256)": {
        "encoding": "mapping",
        "key": "t_address",
        "label": "mapping(address => uint256)",
        "numberOfBytes": "32",
        "value": "t_uint256"
      },
      "t_uint256": {
        "encoding": "inplace",
        "label": "uint256",
        "numberOfBytes": "32"
      }
    }
  }
}